{
  "contractName": "BlockchaindecouverteToken",
  "abi": [
    {
      "inputs": [],
      "stateMutability": "nonpayable",
      "type": "constructor"
    },
    {
      "inputs": [],
      "name": "_totalSupply",
      "outputs": [
        {
          "internalType": "uint256",
          "name": "",
          "type": "uint256"
        }
      ],
      "stateMutability": "view",
      "type": "function",
      "constant": true
    },
    {
      "inputs": [],
      "name": "name",
      "outputs": [
        {
          "internalType": "string",
          "name": "",
          "type": "string"
        }
      ],
      "stateMutability": "view",
      "type": "function",
      "constant": true
    },
    {
      "inputs": [],
      "name": "symbol",
      "outputs": [
        {
          "internalType": "string",
          "name": "",
          "type": "string"
        }
      ],
      "stateMutability": "view",
      "type": "function",
      "constant": true
    },
    {
      "inputs": [],
      "name": "totalSupply",
      "outputs": [
        {
          "internalType": "uint256",
          "name": "",
          "type": "uint256"
        }
      ],
      "stateMutability": "view",
      "type": "function",
      "constant": true
    },
    {
      "inputs": [
        {
          "internalType": "address",
          "name": "_owner",
          "type": "address"
        }
      ],
      "name": "balanceOf",
      "outputs": [
        {
          "internalType": "uint256",
          "name": "",
          "type": "uint256"
        }
      ],
      "stateMutability": "view",
      "type": "function",
      "constant": true
    }
  ],
  "bytecode": "0x60806040526040518060400160405280601981526020017f426c6f636b636861696e6465636f757665727465546f6b656e000000000000008152506002908051906020019061004f9291906100b8565b506040518060400160405280600381526020017f42445400000000000000000000000000000000000000000000000000000000008152506003908051906020019061009b9291906100b8565b503480156100a857600080fd5b50620f42406004819055506101bc565b8280546100c49061018a565b90600052602060002090601f0160209004810192826100e6576000855561012d565b82601f106100ff57805160ff191683800117855561012d565b8280016001018555821561012d579182015b8281111561012c578251825591602001919060010190610111565b5b50905061013a919061013e565b5090565b5b8082111561015757600081600090555060010161013f565b5090565b7f4e487b7100000000000000000000000000000000000000000000000000000000600052602260045260246000fd5b600060028204905060018216806101a257607f821691505b602082108114156101b6576101b561015b565b5b50919050565b61048e806101cb6000396000f3fe608060405234801561001057600080fd5b50600436106100575760003560e01c806306fdde031461005c57806318160ddd1461007a5780633eaaf86b1461009857806370a08231146100b657806395d89b41146100e6575b600080fd5b610064610104565b6040516100719190610311565b60405180910390f35b610082610192565b60405161008f919061034c565b60405180910390f35b6100a061019c565b6040516100ad919061034c565b60405180910390f35b6100d060048036038101906100cb91906103ca565b6101a2565b6040516100dd919061034c565b60405180910390f35b6100ee6101ea565b6040516100fb9190610311565b60405180910390f35b6002805461011190610426565b80601f016020809104026020016040519081016040528092919081815260200182805461013d90610426565b801561018a5780601f1061015f5761010080835404028352916020019161018a565b820191906000526020600020905b81548152906001019060200180831161016d57829003601f168201915b505050505081565b6000600454905090565b60045481565b60008060008373ffffffffffffffffffffffffffffffffffffffff1673ffffffffffffffffffffffffffffffffffffffff168152602001908152602001600020549050919050565b600380546101f790610426565b80601f016020809104026020016040519081016040528092919081815260200182805461022390610426565b80156102705780601f1061024557610100808354040283529160200191610270565b820191906000526020600020905b81548152906001019060200180831161025357829003601f168201915b505050505081565b600081519050919050565b600082825260208201905092915050565b60005b838110156102b2578082015181840152602081019050610297565b838111156102c1576000848401525b50505050565b6000601f19601f8301169050919050565b60006102e382610278565b6102ed8185610283565b93506102fd818560208601610294565b610306816102c7565b840191505092915050565b6000602082019050818103600083015261032b81846102d8565b905092915050565b6000819050919050565b61034681610333565b82525050565b6000602082019050610361600083018461033d565b92915050565b600080fd5b600073ffffffffffffffffffffffffffffffffffffffff82169050919050565b60006103978261036c565b9050919050565b6103a78161038c565b81146103b257600080fd5b50565b6000813590506103c48161039e565b92915050565b6000602082840312156103e0576103df610367565b5b60006103ee848285016103b5565b91505092915050565b7f4e487b7100000000000000000000000000000000000000000000000000000000600052602260045260246000fd5b6000600282049050600182168061043e57607f821691505b60208210811415610452576104516103f7565b5b5091905056fea2646970667358221220c5eeba358e6e7a2d813e14c576455105fb0442fd8c6f0ff52f6a7896e3ce8c7064736f6c63430008090033",
  "immutableReferences": {},
  "source": "pragma solidity >=0.4.22 <0.9.0;\r\n\r\ncontract BlockchaindecouverteToken {\r\n\r\n    //Constructor\r\n    //Nombre total de tokens \r\n    //Lire le nombre total de token \r\n\r\n    mapping(address => uint) _balances;\r\n    mapping(address => mapping(address => uint)) _allowed;\r\n    \r\n    string public name = \"BlockchaindecouverteToken\";\r\n    string public symbol = \"BDT\";\r\n    uint256 public _totalSupply;\r\n\r\n    constructor() public {\r\n        \r\n        _totalSupply = 1000000;\r\n\r\n    }\r\n\r\n    function totalSupply() public view returns (uint){\r\n        return _totalSupply;\r\n    }\r\n\r\n    function balanceOf(address _owner) public view returns(uint){\r\n        return _balances[_owner];\r\n    }\r\n\r\n\r\n\r\n    \r\n\r\n\r\n\r\n\r\n}",
  "sourcePath": "D:\\Blockchain\\dev\\token\\contracts\\BlockchaindecouverteToken.sol",
  "compiler": {
    "name": "solc",
    "version": "0.8.9+commit.e5eed63a.Emscripten.clang"
  },
  "schemaVersion": "3.4.3",
  "updatedAt": "2021-10-25T12:36:19.108Z",
  "networkType": "ethereum",
  "devdoc": {
    "kind": "dev",
    "methods": {},
    "version": 1
  },
  "userdoc": {
    "kind": "user",
    "methods": {},
    "version": 1
  }
}